{
  "abi": [
    {
      "type": "constructor",
      "inputs": [],
      "stateMutability": "nonpayable"
    },
    {
      "type": "function",
      "name": "DEFAULT_ADMIN_ROLE",
      "inputs": [],
      "outputs": [
        {
          "name": "",
          "type": "bytes32",
          "internalType": "bytes32"
        }
      ],
      "stateMutability": "view"
    },
    {
      "type": "function",
      "name": "MINTER_ROLE",
      "inputs": [],
      "outputs": [
        {
          "name": "",
          "type": "bytes32",
          "internalType": "bytes32"
        }
      ],
      "stateMutability": "view"
    },
    {
      "type": "function",
      "name": "approve",
      "inputs": [
        {
          "name": "to",
          "type": "address",
          "internalType": "address"
        },
        {
          "name": "tokenId",
          "type": "uint256",
          "internalType": "uint256"
        }
      ],
      "outputs": [],
      "stateMutability": "nonpayable"
    },
    {
      "type": "function",
      "name": "balanceOf",
      "inputs": [
        {
          "name": "owner",
          "type": "address",
          "internalType": "address"
        }
      ],
      "outputs": [
        {
          "name": "",
          "type": "uint256",
          "internalType": "uint256"
        }
      ],
      "stateMutability": "view"
    },
    {
      "type": "function",
      "name": "cheer",
      "inputs": [],
      "outputs": [],
      "stateMutability": "nonpayable"
    },
    {
      "type": "function",
      "name": "feed",
      "inputs": [],
      "outputs": [],
      "stateMutability": "nonpayable"
    },
    {
      "type": "function",
      "name": "frameMons",
      "inputs": [
        {
          "name": "",
          "type": "uint256",
          "internalType": "uint256"
        }
      ],
      "outputs": [
        {
          "name": "tokenId",
          "type": "uint256",
          "internalType": "uint256"
        },
        {
          "name": "owner",
          "type": "address",
          "internalType": "address"
        },
        {
          "name": "name",
          "type": "string",
          "internalType": "string"
        },
        {
          "name": "birthDate",
          "type": "uint48",
          "internalType": "uint48"
        },
        {
          "name": "moodUpdate",
          "type": "uint48",
          "internalType": "uint48"
        },
        {
          "name": "energyUpdate",
          "type": "uint48",
          "internalType": "uint48"
        },
        {
          "name": "socialUpdate",
          "type": "uint48",
          "internalType": "uint48"
        },
        {
          "name": "mood",
          "type": "uint8",
          "internalType": "uint8"
        },
        {
          "name": "energy",
          "type": "uint8",
          "internalType": "uint8"
        },
        {
          "name": "social",
          "type": "uint8",
          "internalType": "uint8"
        }
      ],
      "stateMutability": "view"
    },
    {
      "type": "function",
      "name": "getApproved",
      "inputs": [
        {
          "name": "tokenId",
          "type": "uint256",
          "internalType": "uint256"
        }
      ],
      "outputs": [
        {
          "name": "",
          "type": "address",
          "internalType": "address"
        }
      ],
      "stateMutability": "view"
    },
    {
      "type": "function",
      "name": "getMon",
      "inputs": [
        {
          "name": "_owner",
          "type": "address",
          "internalType": "address"
        }
      ],
      "outputs": [
        {
          "name": "frameMon",
          "type": "tuple",
          "internalType": "struct FrameMon",
          "components": [
            {
              "name": "tokenId",
              "type": "uint256",
              "internalType": "uint256"
            },
            {
              "name": "owner",
              "type": "address",
              "internalType": "address"
            },
            {
              "name": "name",
              "type": "string",
              "internalType": "string"
            },
            {
              "name": "birthDate",
              "type": "uint48",
              "internalType": "uint48"
            },
            {
              "name": "moodUpdate",
              "type": "uint48",
              "internalType": "uint48"
            },
            {
              "name": "energyUpdate",
              "type": "uint48",
              "internalType": "uint48"
            },
            {
              "name": "socialUpdate",
              "type": "uint48",
              "internalType": "uint48"
            },
            {
              "name": "mood",
              "type": "uint8",
              "internalType": "uint8"
            },
            {
              "name": "energy",
              "type": "uint8",
              "internalType": "uint8"
            },
            {
              "name": "social",
              "type": "uint8",
              "internalType": "uint8"
            }
          ]
        },
        {
          "name": "mood",
          "type": "uint8",
          "internalType": "uint8"
        },
        {
          "name": "energy",
          "type": "uint8",
          "internalType": "uint8"
        },
        {
          "name": "social",
          "type": "uint8",
          "internalType": "uint8"
        }
      ],
      "stateMutability": "view"
    },
    {
      "type": "function",
      "name": "getRoleAdmin",
      "inputs": [
        {
          "name": "role",
          "type": "bytes32",
          "internalType": "bytes32"
        }
      ],
      "outputs": [
        {
          "name": "",
          "type": "bytes32",
          "internalType": "bytes32"
        }
      ],
      "stateMutability": "view"
    },
    {
      "type": "function",
      "name": "grantRole",
      "inputs": [
        {
          "name": "role",
          "type": "bytes32",
          "internalType": "bytes32"
        },
        {
          "name": "account",
          "type": "address",
          "internalType": "address"
        }
      ],
      "outputs": [],
      "stateMutability": "nonpayable"
    },
    {
      "type": "function",
      "name": "hasRole",
      "inputs": [
        {
          "name": "role",
          "type": "bytes32",
          "internalType": "bytes32"
        },
        {
          "name": "account",
          "type": "address",
          "internalType": "address"
        }
      ],
      "outputs": [
        {
          "name": "",
          "type": "bool",
          "internalType": "bool"
        }
      ],
      "stateMutability": "view"
    },
    {
      "type": "function",
      "name": "isApprovedForAll",
      "inputs": [
        {
          "name": "owner",
          "type": "address",
          "internalType": "address"
        },
        {
          "name": "operator",
          "type": "address",
          "internalType": "address"
        }
      ],
      "outputs": [
        {
          "name": "",
          "type": "bool",
          "internalType": "bool"
        }
      ],
      "stateMutability": "view"
    },
    {
      "type": "function",
      "name": "mint",
      "inputs": [
        {
          "name": "_name",
          "type": "string",
          "internalType": "string"
        }
      ],
      "outputs": [
        {
          "name": "",
          "type": "uint256",
          "internalType": "uint256"
        }
      ],
      "stateMutability": "nonpayable"
    },
    {
      "type": "function",
      "name": "name",
      "inputs": [],
      "outputs": [
        {
          "name": "",
          "type": "string",
          "internalType": "string"
        }
      ],
      "stateMutability": "view"
    },
    {
      "type": "function",
      "name": "ownerOf",
      "inputs": [
        {
          "name": "tokenId",
          "type": "uint256",
          "internalType": "uint256"
        }
      ],
      "outputs": [
        {
          "name": "",
          "type": "address",
          "internalType": "address"
        }
      ],
      "stateMutability": "view"
    },
    {
      "type": "function",
      "name": "ownerToTokenId",
      "inputs": [
        {
          "name": "",
          "type": "address",
          "internalType": "address"
        }
      ],
      "outputs": [
        {
          "name": "",
          "type": "uint256",
          "internalType": "uint256"
        }
      ],
      "stateMutability": "view"
    },
    {
      "type": "function",
      "name": "renounceRole",
      "inputs": [
        {
          "name": "role",
          "type": "bytes32",
          "internalType": "bytes32"
        },
        {
          "name": "callerConfirmation",
          "type": "address",
          "internalType": "address"
        }
      ],
      "outputs": [],
      "stateMutability": "nonpayable"
    },
    {
      "type": "function",
      "name": "revokeRole",
      "inputs": [
        {
          "name": "role",
          "type": "bytes32",
          "internalType": "bytes32"
        },
        {
          "name": "account",
          "type": "address",
          "internalType": "address"
        }
      ],
      "outputs": [],
      "stateMutability": "nonpayable"
    },
    {
      "type": "function",
      "name": "safeTransferFrom",
      "inputs": [
        {
          "name": "from",
          "type": "address",
          "internalType": "address"
        },
        {
          "name": "to",
          "type": "address",
          "internalType": "address"
        },
        {
          "name": "tokenId",
          "type": "uint256",
          "internalType": "uint256"
        }
      ],
      "outputs": [],
      "stateMutability": "nonpayable"
    },
    {
      "type": "function",
      "name": "safeTransferFrom",
      "inputs": [
        {
          "name": "from",
          "type": "address",
          "internalType": "address"
        },
        {
          "name": "to",
          "type": "address",
          "internalType": "address"
        },
        {
          "name": "tokenId",
          "type": "uint256",
          "internalType": "uint256"
        },
        {
          "name": "data",
          "type": "bytes",
          "internalType": "bytes"
        }
      ],
      "outputs": [],
      "stateMutability": "nonpayable"
    },
    {
      "type": "function",
      "name": "setApprovalForAll",
      "inputs": [
        {
          "name": "operator",
          "type": "address",
          "internalType": "address"
        },
        {
          "name": "approved",
          "type": "bool",
          "internalType": "bool"
        }
      ],
      "outputs": [],
      "stateMutability": "nonpayable"
    },
    {
      "type": "function",
      "name": "socialize",
      "inputs": [
        {
          "name": "_friend",
          "type": "address",
          "internalType": "address"
        }
      ],
      "outputs": [],
      "stateMutability": "nonpayable"
    },
    {
      "type": "function",
      "name": "supportsInterface",
      "inputs": [
        {
          "name": "interfaceId",
          "type": "bytes4",
          "internalType": "bytes4"
        }
      ],
      "outputs": [
        {
          "name": "",
          "type": "bool",
          "internalType": "bool"
        }
      ],
      "stateMutability": "view"
    },
    {
      "type": "function",
      "name": "symbol",
      "inputs": [],
      "outputs": [
        {
          "name": "",
          "type": "string",
          "internalType": "string"
        }
      ],
      "stateMutability": "view"
    },
    {
      "type": "function",
      "name": "tokenURI",
      "inputs": [
        {
          "name": "tokenId",
          "type": "uint256",
          "internalType": "uint256"
        }
      ],
      "outputs": [
        {
          "name": "",
          "type": "string",
          "internalType": "string"
        }
      ],
      "stateMutability": "view"
    },
    {
      "type": "function",
      "name": "transferFrom",
      "inputs": [
        {
          "name": "from",
          "type": "address",
          "internalType": "address"
        },
        {
          "name": "to",
          "type": "address",
          "internalType": "address"
        },
        {
          "name": "tokenId",
          "type": "uint256",
          "internalType": "uint256"
        }
      ],
      "outputs": [],
      "stateMutability": "nonpayable"
    },
    {
      "type": "event",
      "name": "Approval",
      "inputs": [
        {
          "name": "owner",
          "type": "address",
          "indexed": true,
          "internalType": "address"
        },
        {
          "name": "approved",
          "type": "address",
          "indexed": true,
          "internalType": "address"
        },
        {
          "name": "tokenId",
          "type": "uint256",
          "indexed": true,
          "internalType": "uint256"
        }
      ],
      "anonymous": false
    },
    {
      "type": "event",
      "name": "ApprovalForAll",
      "inputs": [
        {
          "name": "owner",
          "type": "address",
          "indexed": true,
          "internalType": "address"
        },
        {
          "name": "operator",
          "type": "address",
          "indexed": true,
          "internalType": "address"
        },
        {
          "name": "approved",
          "type": "bool",
          "indexed": false,
          "internalType": "bool"
        }
      ],
      "anonymous": false
    },
    {
      "type": "event",
      "name": "RoleAdminChanged",
      "inputs": [
        {
          "name": "role",
          "type": "bytes32",
          "indexed": true,
          "internalType": "bytes32"
        },
        {
          "name": "previousAdminRole",
          "type": "bytes32",
          "indexed": true,
          "internalType": "bytes32"
        },
        {
          "name": "newAdminRole",
          "type": "bytes32",
          "indexed": true,
          "internalType": "bytes32"
        }
      ],
      "anonymous": false
    },
    {
      "type": "event",
      "name": "RoleGranted",
      "inputs": [
        {
          "name": "role",
          "type": "bytes32",
          "indexed": true,
          "internalType": "bytes32"
        },
        {
          "name": "account",
          "type": "address",
          "indexed": true,
          "internalType": "address"
        },
        {
          "name": "sender",
          "type": "address",
          "indexed": true,
          "internalType": "address"
        }
      ],
      "anonymous": false
    },
    {
      "type": "event",
      "name": "RoleRevoked",
      "inputs": [
        {
          "name": "role",
          "type": "bytes32",
          "indexed": true,
          "internalType": "bytes32"
        },
        {
          "name": "account",
          "type": "address",
          "indexed": true,
          "internalType": "address"
        },
        {
          "name": "sender",
          "type": "address",
          "indexed": true,
          "internalType": "address"
        }
      ],
      "anonymous": false
    },
    {
      "type": "event",
      "name": "Transfer",
      "inputs": [
        {
          "name": "from",
          "type": "address",
          "indexed": true,
          "internalType": "address"
        },
        {
          "name": "to",
          "type": "address",
          "indexed": true,
          "internalType": "address"
        },
        {
          "name": "tokenId",
          "type": "uint256",
          "indexed": true,
          "internalType": "uint256"
        }
      ],
      "anonymous": false
    },
    {
      "type": "error",
      "name": "AccessControlBadConfirmation",
      "inputs": []
    },
    {
      "type": "error",
      "name": "AccessControlUnauthorizedAccount",
      "inputs": [
        {
          "name": "account",
          "type": "address",
          "internalType": "address"
        },
        {
          "name": "neededRole",
          "type": "bytes32",
          "internalType": "bytes32"
        }
      ]
    },
    {
      "type": "error",
      "name": "ERC721IncorrectOwner",
      "inputs": [
        {
          "name": "sender",
          "type": "address",
          "internalType": "address"
        },
        {
          "name": "tokenId",
          "type": "uint256",
          "internalType": "uint256"
        },
        {
          "name": "owner",
          "type": "address",
          "internalType": "address"
        }
      ]
    },
    {
      "type": "error",
      "name": "ERC721InsufficientApproval",
      "inputs": [
        {
          "name": "operator",
          "type": "address",
          "internalType": "address"
        },
        {
          "name": "tokenId",
          "type": "uint256",
          "internalType": "uint256"
        }
      ]
    },
    {
      "type": "error",
      "name": "ERC721InvalidApprover",
      "inputs": [
        {
          "name": "approver",
          "type": "address",
          "internalType": "address"
        }
      ]
    },
    {
      "type": "error",
      "name": "ERC721InvalidOperator",
      "inputs": [
        {
          "name": "operator",
          "type": "address",
          "internalType": "address"
        }
      ]
    },
    {
      "type": "error",
      "name": "ERC721InvalidOwner",
      "inputs": [
        {
          "name": "owner",
          "type": "address",
          "internalType": "address"
        }
      ]
    },
    {
      "type": "error",
      "name": "ERC721InvalidReceiver",
      "inputs": [
        {
          "name": "receiver",
          "type": "address",
          "internalType": "address"
        }
      ]
    },
    {
      "type": "error",
      "name": "ERC721InvalidSender",
      "inputs": [
        {
          "name": "sender",
          "type": "address",
          "internalType": "address"
        }
      ]
    },
    {
      "type": "error",
      "name": "ERC721NonexistentToken",
      "inputs": [
        {
          "name": "tokenId",
          "type": "uint256",
          "internalType": "uint256"
        }
      ]
    }
  ],
  "bytecode": {
    "object": "0x608060405260006007553480156200001657600080fd5b5060405180604001604052806008815260200167232920a6a2a6a7a760c11b815250604051806040016040528060048152602001632326a7a760e11b8152508160009081620000669190620001e8565b506001620000758282620001e8565b5062000087915060009050336200008e565b50620002b4565b60008281526006602090815260408083206001600160a01b038516845290915281205460ff16620001375760008381526006602090815260408083206001600160a01b03861684529091529020805460ff19166001179055620000ee3390565b6001600160a01b0316826001600160a01b0316847f2f8788117e7eff1d82e926ec794901d17c78024a50270940304540a733656f0d60405160405180910390a45060016200013b565b5060005b92915050565b634e487b7160e01b600052604160045260246000fd5b600181811c908216806200016c57607f821691505b6020821081036200018d57634e487b7160e01b600052602260045260246000fd5b50919050565b601f821115620001e3576000816000526020600020601f850160051c81016020861015620001be5750805b601f850160051c820191505b81811015620001df57828155600101620001ca565b5050505b505050565b81516001600160401b0381111562000204576200020462000141565b6200021c8162000215845462000157565b8462000193565b602080601f8311600181146200025457600084156200023b5750858301515b600019600386901b1c1916600185901b178555620001df565b600085815260208120601f198616915b82811015620002855788860151825594840194600190910190840162000264565b5085821015620002a45787850151600019600388901b60f8161c191681555b5050505050600190811b01905550565b61209380620002c46000396000f3fe608060405234801561001057600080fd5b50600436106101a95760003560e01c80636352211e116100f9578063b88d4fde11610097578063d539139311610071578063d5391393146103b9578063d547741f146103e0578063d85d3d27146103f3578063e985e9c51461040657600080fd5b8063b88d4fde14610370578063c87b56dd14610383578063c8ebcdbc1461039657600080fd5b806395d89b41116100d357806395d89b411461033a578063a217fddf14610342578063a22cb4651461034a578063a56dec011461035d57600080fd5b80636352211e1461030157806370a082311461031457806391d148541461032757600080fd5b80632f2ff15d1161016657806337a7b7d81161014057806337a7b7d81461029d57806342842e0e146102a55780634814f035146102b8578063632b2a96146102d857600080fd5b80632f2ff15d1461026f57806334e5a1f51461028257806336568abe1461028a57600080fd5b806301ffc9a7146101ae57806306fdde03146101d6578063081812fc146101eb578063095ea7b31461021657806323b872dd1461022b578063248a9ca31461023e575b600080fd5b6101c16101bc366004611926565b610419565b60405190151581526020015b60405180910390f35b6101de61042a565b6040516101cd9190611993565b6101fe6101f93660046119a6565b6104bc565b6040516001600160a01b0390911681526020016101cd565b6102296102243660046119db565b6104e5565b005b610229610239366004611a05565b6104f4565b61026161024c3660046119a6565b60009081526006602052604090206001015490565b6040519081526020016101cd565b61022961027d366004611a41565b610584565b6102296105a9565b610229610298366004611a41565b610702565b61022961073a565b6102296102b3366004611a05565b61089f565b6102616102c6366004611a6d565b60096020526000908152604090205481565b6102eb6102e63660046119a6565b6108ba565b6040516101cd9a99989796959493929190611a88565b6101fe61030f3660046119a6565b6109be565b610261610322366004611a6d565b6109c9565b6101c1610335366004611a41565b610a11565b6101de610a3c565b610261600081565b610229610358366004611b04565b610a4b565b61022961036b366004611a6d565b610a56565b61022961037e366004611bcc565b610ba7565b6101de6103913660046119a6565b610bbe565b6103a96103a4366004611a6d565b610c33565b6040516101cd9493929190611c48565b6102617f9f2df0fed2c77648de5860a4cc508cd0818c85b8b8a1ab4ceeef8d981c8956a681565b6102296103ee366004611a41565b610e15565b610261610401366004611d3e565b610e3a565b6101c1610414366004611d87565b610ff6565b600061042482611024565b92915050565b60606000805461043990611db1565b80601f016020809104026020016040519081016040528092919081815260200182805461046590611db1565b80156104b25780601f10610487576101008083540402835291602001916104b2565b820191906000526020600020905b81548152906001019060200180831161049557829003601f168201915b5050505050905090565b60006104c782611049565b506000828152600460205260409020546001600160a01b0316610424565b6104f0828233611082565b5050565b6001600160a01b03821661052357604051633250574960e11b8152600060048201526024015b60405180910390fd5b600061053083833361108f565b9050836001600160a01b0316816001600160a01b03161461057e576040516364283d7b60e01b81526001600160a01b038086166004830152602482018490528216604482015260640161051a565b50505050565b60008281526006602052604090206001015461059f816110bd565b61057e83836110ca565b33600081815260096020908152604080832054835260089091529020600181015490916001600160a01b039091161461061d5760405162461bcd60e51b8152602060048201526016602482015275233930b6b2a6b7b727232a1d103737ba1037bbb732b960511b604482015260640161051a565b6003810154610e109061063f90600160301b900465ffffffffffff1642611e01565b1161065c5760405162461bcd60e51b815260040161051a90611e14565b600381015460009061068790600160c01b810460ff1690600160301b900465ffffffffffff1661115e565b9050605a8160ff16116106a45761069f81600a611e57565b6106a7565b60645b600392909201805478ff000000000000000000000000ffffffffffff0000000000001916600160c01b60ff909416939093026bffffffffffff000000000000191692909217600160301b4265ffffffffffff16021790915550565b6001600160a01b038116331461072b5760405163334bd91960e11b815260040160405180910390fd5b61073582826111bc565b505050565b33600081815260096020908152604080832054835260089091529020600181015490916001600160a01b03909116146107c55760405162461bcd60e51b815260206004820152602760248201527f4672616d654d6f6e4e46543a206e6f74206f776e6572206f7220646f65736e746044820152661032bc34b9ba1760c91b606482015260840161051a565b6003810154610e10906107e790600160601b900465ffffffffffff1642611e01565b116108045760405162461bcd60e51b815260040161051a90611e14565b600381015460009061082f90600160c81b810460ff1690600160601b900465ffffffffffff1661115e565b9050605a8160ff161161084c5761084781600a611e57565b61084f565b60645b60039290920180546dff00000000000000ffffffffffff60601b1916600160c81b60ff9094169390930265ffffffffffff60601b191692909217600160601b4265ffffffffffff16021790915550565b61073583838360405180602001604052806000815250610ba7565b60086020526000908152604090208054600182015460028301805492936001600160a01b03909216926108ec90611db1565b80601f016020809104026020016040519081016040528092919081815260200182805461091890611db1565b80156109655780601f1061093a57610100808354040283529160200191610965565b820191906000526020600020905b81548152906001019060200180831161094857829003601f168201915b5050506003909301549192505065ffffffffffff80821691600160301b8104821691600160601b8204811691600160901b81049091169060ff600160c01b8204811691600160c81b8104821691600160d01b909104168a565b600061042482611049565b60006001600160a01b0382166109f5576040516322718ad960e21b81526000600482015260240161051a565b506001600160a01b031660009081526003602052604090205490565b60009182526006602090815260408084206001600160a01b0393909316845291905290205460ff1690565b60606001805461043990611db1565b6104f0338383611229565b6001600160a01b03808216600081815260096020908152604080832054835260089091529020600181015490921614610ad15760405162461bcd60e51b815260206004820152601a60248201527f4672616d654d6f6e4e46543a20446f65736e742065786973742e000000000000604482015260640161051a565b6003810154610e1090610af390600160901b900465ffffffffffff1642611e01565b11610b105760405162461bcd60e51b815260040161051a90611e14565b6003810154600090610b3b90600160d01b810460ff1690600160901b900465ffffffffffff1661115e565b9050605a8160ff1611610b5857610b5381600a611e57565b610b5b565b60645b600392909201805468ff0000ffffffffffff60901b1916600160d01b60ff9094169390930265ffffffffffff60901b191692909217600160901b4265ffffffffffff1602179091555050565b610bb28484846104f4565b61057e848484846112c8565b6060610bc982611049565b506000610be160408051602081019091526000815290565b90506000815111610c015760405180602001604052806000815250610c2c565b80610c0b846113f1565b604051602001610c1c929190611e70565b6040516020818303038152906040525b9392505050565b60408051610140808201835260008083526020808401829052606084860181905284018290526080840182905260a0840182905260c0840182905260e08401829052610100840182905261012084018290526001600160a01b03868116835260098252858320548352600882528583208651948501875280548552600181015490911691840191909152600281018054949592948594859490939290840191610cdb90611db1565b80601f0160208091040260200160405190810160405280929190818152602001828054610d0790611db1565b8015610d545780601f10610d2957610100808354040283529160200191610d54565b820191906000526020600020905b815481529060010190602001808311610d3757829003601f168201915b50505091835250506003919091015465ffffffffffff8082166020840152600160301b820481166040840152600160601b820481166060840152600160901b82041660808084019190915260ff600160c01b8304811660a0850152600160c81b8304811660c0850152600160d01b90920490911660e0928301529082015190820151919550610de29161115e565b9250610df78461010001518560a0015161115e565b9150610e0c8461012001518560c0015161115e565b90509193509193565b600082815260066020526040902060010154610e30816110bd565b61057e83836111bc565b6007805460009182610e4b83611e9f565b90915550506007543360008181526009602090815260408083208590558051610140810182528581528083019485528082018881524265ffffffffffff16606083018190526080830181905260a0830181905260c0830152603260e08301819052610100830181905261012083015295845260089092529091208151815591516001830180546001600160a01b0319166001600160a01b0390921691909117905591518291906002820190610f009082611f08565b50606082015160039091018054608084015160a085015160c086015160e08701516101008801516101209098015160ff908116600160d01b0260ff60d01b19998216600160c81b0260ff60c81b1992909316600160c01b029190911661ffff60c01b1965ffffffffffff948516600160901b0265ffffffffffff60901b19968616600160601b02969096166bffffffffffffffffffffffff60601b19978616600160301b026bffffffffffffffffffffffff1990991695909a16949094179690961794909416969096179190911716919091179290921792909216179055600754610fec903390611484565b5050600754919050565b6001600160a01b03918216600090815260056020908152604080832093909416825291909152205460ff1690565b60006001600160e01b03198216637965db0b60e01b14806104245750610424826114e9565b6000818152600260205260408120546001600160a01b03168061042457604051637e27328960e01b81526004810184905260240161051a565b6107358383836001611539565b6001600160a01b03831660009081526009602052604081208390556110b584848461163f565b949350505050565b6110c78133611738565b50565b60006110d68383610a11565b6111565760008381526006602090815260408083206001600160a01b03861684529091529020805460ff1916600117905561110e3390565b6001600160a01b0316826001600160a01b0316847f2f8788117e7eff1d82e926ec794901d17c78024a50270940304540a733656f0d60405160405180910390a4506001610424565b506000610424565b60008061117365ffffffffffff841642611e01565b90506000611183610e1083611fc8565b905080156111b3578460ff1681106111a057600092505050610424565b6111aa8186611fea565b92505050610424565b50929392505050565b60006111c88383610a11565b156111565760008381526006602090815260408083206001600160a01b0386168085529252808320805460ff1916905551339286917ff6391f5c32d9c69d2a47ea670b442974b53935d1edc7fd64eb21e047a839171b9190a4506001610424565b6001600160a01b03821661125b57604051630b61174360e31b81526001600160a01b038316600482015260240161051a565b6001600160a01b03838116600081815260056020908152604080832094871680845294825291829020805460ff191686151590811790915591519182527f17307eab39ab6107e8899845ad3d59bd9653f200f220920489ca2b5937696c31910160405180910390a3505050565b6001600160a01b0383163b1561057e57604051630a85bd0160e11b81526001600160a01b0384169063150b7a029061130a903390889087908790600401612003565b6020604051808303816000875af1925050508015611345575060408051601f3d908101601f1916820190925261134291810190612040565b60015b6113ae573d808015611373576040519150601f19603f3d011682016040523d82523d6000602084013e611378565b606091505b5080516000036113a657604051633250574960e11b81526001600160a01b038516600482015260240161051a565b805181602001fd5b6001600160e01b03198116630a85bd0160e11b146113ea57604051633250574960e11b81526001600160a01b038516600482015260240161051a565b5050505050565b606060006113fe83611771565b600101905060008167ffffffffffffffff81111561141e5761141e611b40565b6040519080825280601f01601f191660200182016040528015611448576020820181803683370190505b5090508181016020015b600019016f181899199a1a9b1b9c1cb0b131b232b360811b600a86061a8153600a850494508461145257509392505050565b6001600160a01b0382166114ae57604051633250574960e11b81526000600482015260240161051a565b60006114bc8383600061108f565b90506001600160a01b03811615610735576040516339e3563760e11b81526000600482015260240161051a565b60006001600160e01b031982166380ac58cd60e01b148061151a57506001600160e01b03198216635b5e139f60e01b145b8061042457506301ffc9a760e01b6001600160e01b0319831614610424565b808061154d57506001600160a01b03821615155b1561160f57600061155d84611049565b90506001600160a01b038316158015906115895750826001600160a01b0316816001600160a01b031614155b801561159c575061159a8184610ff6565b155b156115c55760405163a9fbf51f60e01b81526001600160a01b038416600482015260240161051a565b811561160d5783856001600160a01b0316826001600160a01b03167f8c5be1e5ebec7d5bd14f71427d1e84f3dd0314c0f7b2291e5b200ac8c7c3b92560405160405180910390a45b505b5050600090815260046020526040902080546001600160a01b0319166001600160a01b0392909216919091179055565b6000828152600260205260408120546001600160a01b039081169083161561166c5761166c818486611849565b6001600160a01b038116156116aa57611689600085600080611539565b6001600160a01b038116600090815260036020526040902080546000190190555b6001600160a01b038516156116d9576001600160a01b0385166000908152600360205260409020805460010190555b60008481526002602052604080822080546001600160a01b0319166001600160a01b0389811691821790925591518793918516917fddf252ad1be2c89b69c2b068fc378daa952ba7f163c4a11628f55a4df523b3ef91a4949350505050565b6117428282610a11565b6104f05760405163e2517d3f60e01b81526001600160a01b03821660048201526024810183905260440161051a565b60008072184f03e93ff9f4daa797ed6e38ed64bf6a1f0160401b83106117b05772184f03e93ff9f4daa797ed6e38ed64bf6a1f0160401b830492506040015b6d04ee2d6d415b85acef810000000083106117dc576d04ee2d6d415b85acef8100000000830492506020015b662386f26fc1000083106117fa57662386f26fc10000830492506010015b6305f5e1008310611812576305f5e100830492506008015b612710831061182657612710830492506004015b60648310611838576064830492506002015b600a83106104245760010192915050565b6118548383836118ad565b610735576001600160a01b03831661188257604051637e27328960e01b81526004810182905260240161051a565b60405163177e802f60e01b81526001600160a01b03831660048201526024810182905260440161051a565b60006001600160a01b038316158015906110b55750826001600160a01b0316846001600160a01b031614806118e757506118e78484610ff6565b806110b55750506000908152600460205260409020546001600160a01b03908116911614919050565b6001600160e01b0319811681146110c757600080fd5b60006020828403121561193857600080fd5b8135610c2c81611910565b60005b8381101561195e578181015183820152602001611946565b50506000910152565b6000815180845261197f816020860160208601611943565b601f01601f19169290920160200192915050565b602081526000610c2c6020830184611967565b6000602082840312156119b857600080fd5b5035919050565b80356001600160a01b03811681146119d657600080fd5b919050565b600080604083850312156119ee57600080fd5b6119f7836119bf565b946020939093013593505050565b600080600060608486031215611a1a57600080fd5b611a23846119bf565b9250611a31602085016119bf565b9150604084013590509250925092565b60008060408385031215611a5457600080fd5b82359150611a64602084016119bf565b90509250929050565b600060208284031215611a7f57600080fd5b610c2c826119bf565b8a81526001600160a01b038a16602082015261014060408201819052600090611ab38382018c611967565b65ffffffffffff9a8b166060850152988a166080840152505094871660a08601529290951660c084015260ff90811660e0840152938416610100830152909216610120909201919091529392505050565b60008060408385031215611b1757600080fd5b611b20836119bf565b915060208301358015158114611b3557600080fd5b809150509250929050565b634e487b7160e01b600052604160045260246000fd5b600067ffffffffffffffff80841115611b7157611b71611b40565b604051601f8501601f19908116603f01168101908282118183101715611b9957611b99611b40565b81604052809350858152868686011115611bb257600080fd5b858560208301376000602087830101525050509392505050565b60008060008060808587031215611be257600080fd5b611beb856119bf565b9350611bf9602086016119bf565b925060408501359150606085013567ffffffffffffffff811115611c1c57600080fd5b8501601f81018713611c2d57600080fd5b611c3c87823560208401611b56565b91505092959194509250565b608081528451608082015260006020860151611c6f60a08401826001600160a01b03169052565b5060408601516101408060c0850152611c8c6101c0850183611967565b91506060880151611ca760e086018265ffffffffffff169052565b506080880151610100611cc38187018365ffffffffffff169052565b60a08a01519150610120611ce08188018465ffffffffffff169052565b60c08b015165ffffffffffff169387019390935260e08a015160ff908116610160880152908a01518116610180870152919098015181166101a085015295861660208401529385166040830152509216606090920191909152919050565b600060208284031215611d5057600080fd5b813567ffffffffffffffff811115611d6757600080fd5b8201601f81018413611d7857600080fd5b6110b584823560208401611b56565b60008060408385031215611d9a57600080fd5b611da3836119bf565b9150611a64602084016119bf565b600181811c90821680611dc557607f821691505b602082108103611de557634e487b7160e01b600052602260045260246000fd5b50919050565b634e487b7160e01b600052601160045260246000fd5b8181038181111561042457610424611deb565b60208082526023908201527f4672616d654d6f6e4e46543a206e6f7420656e6f7567682074696d65207061736040820152621cd95960ea1b606082015260800190565b60ff818116838216019081111561042457610424611deb565b60008351611e82818460208801611943565b835190830190611e96818360208801611943565b01949350505050565b600060018201611eb157611eb1611deb565b5060010190565b601f821115610735576000816000526020600020601f850160051c81016020861015611ee15750805b601f850160051c820191505b81811015611f0057828155600101611eed565b505050505050565b815167ffffffffffffffff811115611f2257611f22611b40565b611f3681611f308454611db1565b84611eb8565b602080601f831160018114611f6b5760008415611f535750858301515b600019600386901b1c1916600185901b178555611f00565b600085815260208120601f198616915b82811015611f9a57888601518255948401946001909101908401611f7b565b5085821015611fb85787850151600019600388901b60f8161c191681555b5050505050600190811b01905550565b600082611fe557634e487b7160e01b600052601260045260246000fd5b500490565b60ff828116828216039081111561042457610424611deb565b6001600160a01b038581168252841660208201526040810183905260806060820181905260009061203690830184611967565b9695505050505050565b60006020828403121561205257600080fd5b8151610c2c8161191056fea264697066735822122091ab5dbca844483a2f014580534e52cf012db172da0ac1d625e636cff77b3eeb64736f6c63430008180033",
    "linkReferences": {}
  },
  "methodIdentifiers": {
    "DEFAULT_ADMIN_ROLE()": "a217fddf",
    "MINTER_ROLE()": "d5391393",
    "approve(address,uint256)": "095ea7b3",
    "balanceOf(address)": "70a08231",
    "cheer()": "34e5a1f5",
    "feed()": "37a7b7d8",
    "frameMons(uint256)": "632b2a96",
    "getApproved(uint256)": "081812fc",
    "getMon(address)": "c8ebcdbc",
    "getRoleAdmin(bytes32)": "248a9ca3",
    "grantRole(bytes32,address)": "2f2ff15d",
    "hasRole(bytes32,address)": "91d14854",
    "isApprovedForAll(address,address)": "e985e9c5",
    "mint(string)": "d85d3d27",
    "name()": "06fdde03",
    "ownerOf(uint256)": "6352211e",
    "ownerToTokenId(address)": "4814f035",
    "renounceRole(bytes32,address)": "36568abe",
    "revokeRole(bytes32,address)": "d547741f",
    "safeTransferFrom(address,address,uint256)": "42842e0e",
    "safeTransferFrom(address,address,uint256,bytes)": "b88d4fde",
    "setApprovalForAll(address,bool)": "a22cb465",
    "socialize(address)": "a56dec01",
    "supportsInterface(bytes4)": "01ffc9a7",
    "symbol()": "95d89b41",
    "tokenURI(uint256)": "c87b56dd",
    "transferFrom(address,address,uint256)": "23b872dd"
  },
  "id": 35
}